{"contracts/BlockHashPredictor.sol":{"BlockHashPredictor":{"abi":[{"anonymous":false,"inputs":[{"indexed":true,"internalType":"uint256","name":"predictionId","type":"uint256"},{"indexed":true,"internalType":"address","name":"predictor","type":"address"},{"indexed":false,"internalType":"bytes32","name":"actualHash","type":"bytes32"},{"indexed":false,"internalType":"bool","name":"correct","type":"bool"}],"name":"PredictionRevealed","type":"event"},{"anonymous":false,"inputs":[{"indexed":true,"internalType":"uint256","name":"predictionId","type":"uint256"},{"indexed":true,"internalType":"address","name":"predictor","type":"address"},{"indexed":false,"internalType":"uint256","name":"targetBlock","type":"uint256"},{"indexed":false,"internalType":"bytes32","name":"predictedHash","type":"bytes32"}],"name":"PredictionSubmitted","type":"event"},{"inputs":[],"name":"currentBlockNumber","outputs":[{"internalType":"uint256","name":"","type":"uint256"}],"stateMutability":"view","type":"function"},{"inputs":[{"internalType":"uint256","name":"_blockNumber","type":"uint256"}],"name":"getBlockHash","outputs":[{"internalType":"bytes32","name":"","type":"bytes32"}],"stateMutability":"view","type":"function"},{"inputs":[{"internalType":"uint256","name":"_id","type":"uint256"}],"name":"getPrediction","outputs":[{"internalType":"address","name":"predictor","type":"address"},{"internalType":"uint256","name":"targetBlock","type":"uint256"},{"internalType":"bytes32","name":"predictedHash","type":"bytes32"},{"internalType":"bytes32","name":"actualHash","type":"bytes32"},{"internalType":"bool","name":"revealed","type":"bool"},{"internalType":"bool","name":"correct","type":"bool"},{"internalType":"uint256","name":"timestamp","type":"uint256"}],"stateMutability":"view","type":"function"},{"inputs":[{"internalType":"address","name":"_user","type":"address"}],"name":"getUserPredictions","outputs":[{"internalType":"uint256[]","name":"","type":"uint256[]"}],"stateMutability":"view","type":"function"},{"inputs":[],"name":"latestStoredBlockNumber","outputs":[{"internalType":"uint256","name":"","type":"uint256"}],"stateMutability":"view","type":"function"},{"inputs":[],"name":"latestStoredHash","outputs":[{"internalType":"bytes32","name":"","type":"bytes32"}],"stateMutability":"view","type":"function"},{"inputs":[{"internalType":"uint256","name":"","type":"uint256"}],"name":"predictions","outputs":[{"internalType":"address","name":"predictor","type":"address"},{"internalType":"uint256","name":"targetBlock","type":"uint256"},{"internalType":"bytes32","name":"predictedHash","type":"bytes32"},{"internalType":"bytes32","name":"actualHash","type":"bytes32"},{"internalType":"bool","name":"revealed","type":"bool"},{"internalType":"bool","name":"correct","type":"bool"},{"internalType":"uint256","name":"timestamp","type":"uint256"}],"stateMutability":"view","type":"function"},{"inputs":[{"internalType":"uint256","name":"_predictionId","type":"uint256"}],"name":"revealPrediction","outputs":[],"stateMutability":"nonpayable","type":"function"},{"inputs":[{"internalType":"bytes32","name":"_predictedHash","type":"bytes32"}],"name":"submitPrediction","outputs":[{"internalType":"uint256","name":"predictionId","type":"uint256"}],"stateMutability":"nonpayable","type":"function"},{"inputs":[],"name":"totalPredictions","outputs":[{"internalType":"uint256","name":"","type":"uint256"}],"stateMutability":"view","type":"function"},{"inputs":[{"internalType":"address","name":"","type":"address"},{"internalType":"uint256","name":"","type":"uint256"}],"name":"userPredictions","outputs":[{"internalType":"uint256","name":"","type":"uint256"}],"stateMutability":"view","type":"function"}],"evm":{"bytecode":{"linkReferences":{},"object":"608060405234801561001057600080fd5b50610978806100206000396000f3fe608060405234801561001057600080fd5b50600436106100a85760003560e01c8063779bd56211610071578063779bd5621461014d578063a6f015c714610155578063c285f8531461015e578063ee82ac5e1461017e578063f6c3317914610191578063fe83bece146101a457600080fd5b80624fbbb0146100ad5780632c923e5f14610108578063378ec23b1461012957806351f6ed6e1461012f57806356ed234614610144575b600080fd5b6100c06100bb366004610825565b6101b7565b604080516001600160a01b039098168852602088019690965294860193909352606085019190915215156080840152151560a083015260c082015260e0015b60405180910390f35b61011b610116366004610825565b610214565b6040519081526020016100ff565b4361011b565b61014261013d366004610825565b610404565b005b61011b60035481565b60005461011b565b61011b60025481565b61017161016c36600461085a565b61065d565b6040516100ff919061087c565b61011b61018c366004610825565b6106c9565b61011b61019f3660046108c0565b610715565b6100c06101b2366004610825565b610746565b600081815481106101c757600080fd5b60009182526020909120600690910201805460018201546002830154600384015460048501546005909501546001600160a01b0390941695509193909260ff808316926101009004169087565b600061021e6107ff565b600061022b436001610900565b600080546040805160e0810182523380825260208083018781528385018b8152606085018881526080860189815260a087018a81524260c089019081526001808c018d558c8052985160068c027f290decd9548b62a8d60345a988386fc84ba6bc95484008f6362f93160ef3e563810180546001600160a01b03939093166001600160a01b03199093169290921790915595517f290decd9548b62a8d60345a988386fc84ba6bc95484008f6362f93160ef3e56487015593517f290decd9548b62a8d60345a988386fc84ba6bc95484008f6362f93160ef3e56586015591517f290decd9548b62a8d60345a988386fc84ba6bc95484008f6362f93160ef3e566850155517f290decd9548b62a8d60345a988386fc84ba6bc95484008f6362f93160ef3e56784018054925115156101000261ff00199215159290921661ffff1990931692909217179055517f290decd9548b62a8d60345a988386fc84ba6bc95484008f6362f93160ef3e5689091015581865282815283862080549384018155865290942001829055519094509192509083907fbcb8afb77c4fd53e373b13820fcf977bcc727ce8391988f1171af2bc168043ea906103f69085908890918252602082015260400190565b60405180910390a350919050565b60005481106104475760405162461bcd60e51b815260206004820152600a602482015269125b9d985b1a5908125160b21b60448201526064015b60405180910390fd5b600080828154811061045b5761045b610919565b60009182526020909120600690910201600481015490915060ff16156104b65760405162461bcd60e51b815260206004820152601060248201526f105b1c9958591e481c995d99585b195960821b604482015260640161043e565b806001015443116105095760405162461bcd60e51b815260206004820152601a60248201527f54617267657420626c6f636b206e6f7420796574206d696e6564000000000000604482015260640161043e565b61010081600101544361051c919061092f565b11156105895760405162461bcd60e51b815260206004820152603660248201527f546f6f206c617465202d20626c6f636b68617368206e6f206c6f6e67657220616044820152757661696c61626c6520283e32353620626c6f636b732960501b606482015260840161043e565b600181015440806105d45760405162461bcd60e51b8152602060048201526015602482015274426c6f636b6861736820756e617661696c61626c6560581b604482015260640161043e565b60038201819055600482018054600284015483146101000261ffff199091161760011790556106016107ff565b815460048301546040805184815261010090920460ff16151560208301526001600160a01b039092169185917fb0990bbeba886280e2f786ccab9dc00ed1217483db275620ab7618b06b278066910160405180910390a3505050565b6001600160a01b0381166000908152600160209081526040918290208054835181840281018401909452808452606093928301828280156106bd57602002820191906000526020600020905b8154815260200190600101908083116106a9575b50505050509050919050565b60004382106107105760405162461bcd60e51b8152602060048201526013602482015272109b1bd8dac81b9bdd081b5a5b9959081e595d606a1b604482015260640161043e565b504090565b6001602052816000526040600020818154811061073157600080fd5b90600052602060002001600091509150505481565b6000806000806000806000808054905088106107915760405162461bcd60e51b815260206004820152600a602482015269125b9d985b1a5908125160b21b604482015260640161043e565b60008089815481106107a5576107a5610919565b60009182526020909120600690910201805460018201546002830154600384015460048501546005909501546001600160a01b039094169e929d50909b50995060ff80841699506101009093049092169650945092505050565b43156108235761081060014361092f565b60035561081e60014361092f565b406002555b565b60006020828403121561083757600080fd5b5035919050565b80356001600160a01b038116811461085557600080fd5b919050565b60006020828403121561086c57600080fd5b6108758261083e565b9392505050565b6020808252825182820181905260009190848201906040850190845b818110156108b457835183529284019291840191600101610898565b50909695505050505050565b600080604083850312156108d357600080fd5b6108dc8361083e565b946020939093013593505050565b634e487b7160e01b600052601160045260246000fd5b80820180821115610913576109136108ea565b92915050565b634e487b7160e01b600052603260045260246000fd5b81810381811115610913576109136108ea56fea264697066735822122012edbf89299375fa5bf0e89cbafbd5b685540637a690ad8942c8b2e089c5c0fb64736f6c63430008180033","opcodes":"PUSH1 0x80 PUSH1 0x40 MSTORE CALLVALUE DUP1 ISZERO PUSH2 0x10 JUMPI PUSH1 0x0 DUP1 REVERT JUMPDEST POP PUSH2 0x978 DUP1 PUSH2 0x20 PUSH1 0x0 CODECOPY PUSH1 0x0 RETURN INVALID PUSH1 0x80 PUSH1 0x40 MSTORE CALLVALUE DUP1 ISZERO PUSH2 0x10 JUMPI PUSH1 0x0 DUP1 REVERT JUMPDEST POP PUSH1 0x4 CALLDATASIZE LT PUSH2 0xA8 JUMPI PUSH1 0x0 CALLDATALOAD PUSH1 0xE0 SHR DUP1 PUSH4 0x779BD562 GT PUSH2 0x71 JUMPI DUP1 PUSH4 0x779BD562 EQ PUSH2 0x14D JUMPI DUP1 PUSH4 0xA6F015C7 EQ PUSH2 0x155 JUMPI DUP1 PUSH4 0xC285F853 EQ PUSH2 0x15E JUMPI DUP1 PUSH4 0xEE82AC5E EQ PUSH2 0x17E JUMPI DUP1 PUSH4 0xF6C33179 EQ PUSH2 0x191 JUMPI DUP1 PUSH4 0xFE83BECE EQ PUSH2 0x1A4 JUMPI PUSH1 0x0 DUP1 REVERT JUMPDEST DUP1 PUSH3 0x4FBBB0 EQ PUSH2 0xAD JUMPI DUP1 PUSH4 0x2C923E5F EQ PUSH2 0x108 JUMPI DUP1 PUSH4 0x378EC23B EQ PUSH2 0x129 JUMPI DUP1 PUSH4 0x51F6ED6E EQ PUSH2 0x12F JUMPI DUP1 PUSH4 0x56ED2346 EQ PUSH2 0x144 JUMPI JUMPDEST PUSH1 0x0 DUP1 REVERT JUMPDEST PUSH2 0xC0 PUSH2 0xBB CALLDATASIZE PUSH1 0x4 PUSH2 0x825 JUMP JUMPDEST PUSH2 0x1B7 JUMP JUMPDEST PUSH1 0x40 DUP1 MLOAD PUSH1 0x1 PUSH1 0x1 PUSH1 0xA0 SHL SUB SWAP1 SWAP9 AND DUP9 MSTORE PUSH1 0x20 DUP9 ADD SWAP7 SWAP1 SWAP7 MSTORE SWAP5 DUP7 ADD SWAP4 SWAP1 SWAP4 MSTORE PUSH1 0x60 DUP6 ADD SWAP2 SWAP1 SWAP2 MSTORE ISZERO ISZERO PUSH1 0x80 DUP5 ADD MSTORE ISZERO ISZERO PUSH1 0xA0 DUP4 ADD MSTORE PUSH1 0xC0 DUP3 ADD MSTORE PUSH1 0xE0 ADD JUMPDEST PUSH1 0x40 MLOAD DUP1 SWAP2 SUB SWAP1 RETURN JUMPDEST PUSH2 0x11B PUSH2 0x116 CALLDATASIZE PUSH1 0x4 PUSH2 0x825 JUMP JUMPDEST PUSH2 0x214 JUMP JUMPDEST PUSH1 0x40 MLOAD SWAP1 DUP2 MSTORE PUSH1 0x20 ADD PUSH2 0xFF JUMP JUMPDEST NUMBER PUSH2 0x11B JUMP JUMPDEST PUSH2 0x142 PUSH2 0x13D CALLDATASIZE PUSH1 0x4 PUSH2 0x825 JUMP JUMPDEST PUSH2 0x404 JUMP JUMPDEST STOP JUMPDEST PUSH2 0x11B PUSH1 0x3 SLOAD DUP2 JUMP JUMPDEST PUSH1 0x0 SLOAD PUSH2 0x11B JUMP JUMPDEST PUSH2 0x11B PUSH1 0x2 SLOAD DUP2 JUMP JUMPDEST PUSH2 0x171 PUSH2 0x16C CALLDATASIZE PUSH1 0x4 PUSH2 0x85A JUMP JUMPDEST PUSH2 0x65D JUMP JUMPDEST PUSH1 0x40 MLOAD PUSH2 0xFF SWAP2 SWAP1 PUSH2 0x87C JUMP JUMPDEST PUSH2 0x11B PUSH2 0x18C CALLDATASIZE PUSH1 0x4 PUSH2 0x825 JUMP JUMPDEST PUSH2 0x6C9 JUMP JUMPDEST PUSH2 0x11B PUSH2 0x19F CALLDATASIZE PUSH1 0x4 PUSH2 0x8C0 JUMP JUMPDEST PUSH2 0x715 JUMP JUMPDEST PUSH2 0xC0 PUSH2 0x1B2 CALLDATASIZE PUSH1 0x4 PUSH2 0x825 JUMP JUMPDEST PUSH2 0x746 JUMP JUMPDEST PUSH1 0x0 DUP2 DUP2 SLOAD DUP2 LT PUSH2 0x1C7 JUMPI PUSH1 0x0 DUP1 REVERT JUMPDEST PUSH1 0x0 SWAP2 DUP3 MSTORE PUSH1 0x20 SWAP1 SWAP2 KECCAK256 PUSH1 0x6 SWAP1 SWAP2 MUL ADD DUP1 SLOAD PUSH1 0x1 DUP3 ADD SLOAD PUSH1 0x2 DUP4 ADD SLOAD PUSH1 0x3 DUP5 ADD SLOAD PUSH1 0x4 DUP6 ADD SLOAD PUSH1 0x5 SWAP1 SWAP6 ADD SLOAD PUSH1 0x1 PUSH1 0x1 PUSH1 0xA0 SHL SUB SWAP1 SWAP5 AND SWAP6 POP SWAP2 SWAP4 SWAP1 SWAP3 PUSH1 0xFF DUP1 DUP4 AND SWAP3 PUSH2 0x100 SWAP1 DIV AND SWAP1 DUP8 JUMP JUMPDEST PUSH1 0x0 PUSH2 0x21E PUSH2 0x7FF JUMP JUMPDEST PUSH1 0x0 PUSH2 0x22B NUMBER PUSH1 0x1 PUSH2 0x900 JUMP JUMPDEST PUSH1 0x0 DUP1 SLOAD PUSH1 0x40 DUP1 MLOAD PUSH1 0xE0 DUP2 ADD DUP3 MSTORE CALLER DUP1 DUP3 MSTORE PUSH1 0x20 DUP1 DUP4 ADD DUP8 DUP2 MSTORE DUP4 DUP6 ADD DUP12 DUP2 MSTORE PUSH1 0x60 DUP6 ADD DUP9 DUP2 MSTORE PUSH1 0x80 DUP7 ADD DUP10 DUP2 MSTORE PUSH1 0xA0 DUP8 ADD DUP11 DUP2 MSTORE TIMESTAMP PUSH1 0xC0 DUP10 ADD SWAP1 DUP2 MSTORE PUSH1 0x1 DUP1 DUP13 ADD DUP14 SSTORE DUP13 DUP1 MSTORE SWAP9 MLOAD PUSH1 0x6 DUP13 MUL PUSH32 0x290DECD9548B62A8D60345A988386FC84BA6BC95484008F6362F93160EF3E563 DUP2 ADD DUP1 SLOAD PUSH1 0x1 PUSH1 0x1 PUSH1 0xA0 SHL SUB SWAP4 SWAP1 SWAP4 AND PUSH1 0x1 PUSH1 0x1 PUSH1 0xA0 SHL SUB NOT SWAP1 SWAP4 AND SWAP3 SWAP1 SWAP3 OR SWAP1 SWAP2 SSTORE SWAP6 MLOAD PUSH32 0x290DECD9548B62A8D60345A988386FC84BA6BC95484008F6362F93160EF3E564 DUP8 ADD SSTORE SWAP4 MLOAD PUSH32 0x290DECD9548B62A8D60345A988386FC84BA6BC95484008F6362F93160EF3E565 DUP7 ADD SSTORE SWAP2 MLOAD PUSH32 0x290DECD9548B62A8D60345A988386FC84BA6BC95484008F6362F93160EF3E566 DUP6 ADD SSTORE MLOAD PUSH32 0x290DECD9548B62A8D60345A988386FC84BA6BC95484008F6362F93160EF3E567 DUP5 ADD DUP1 SLOAD SWAP3 MLOAD ISZERO ISZERO PUSH2 0x100 MUL PUSH2 0xFF00 NOT SWAP3 ISZERO ISZERO SWAP3 SWAP1 SWAP3 AND PUSH2 0xFFFF NOT SWAP1 SWAP4 AND SWAP3 SWAP1 SWAP3 OR OR SWAP1 SSTORE MLOAD PUSH32 0x290DECD9548B62A8D60345A988386FC84BA6BC95484008F6362F93160EF3E568 SWAP1 SWAP2 ADD SSTORE DUP2 DUP7 MSTORE DUP3 DUP2 MSTORE DUP4 DUP7 KECCAK256 DUP1 SLOAD SWAP4 DUP5 ADD DUP2 SSTORE DUP7 MSTORE SWAP1 SWAP5 KECCAK256 ADD DUP3 SWAP1 SSTORE MLOAD SWAP1 SWAP5 POP SWAP2 SWAP3 POP SWAP1 DUP4 SWAP1 PUSH32 0xBCB8AFB77C4FD53E373B13820FCF977BCC727CE8391988F1171AF2BC168043EA SWAP1 PUSH2 0x3F6 SWAP1 DUP6 SWAP1 DUP9 SWAP1 SWAP2 DUP3 MSTORE PUSH1 0x20 DUP3 ADD MSTORE PUSH1 0x40 ADD SWAP1 JUMP JUMPDEST PUSH1 0x40 MLOAD DUP1 SWAP2 SUB SWAP1 LOG3 POP SWAP2 SWAP1 POP JUMP JUMPDEST PUSH1 0x0 SLOAD DUP2 LT PUSH2 0x447 JUMPI PUSH1 0x40 MLOAD PUSH3 0x461BCD PUSH1 0xE5 SHL DUP2 MSTORE PUSH1 0x20 PUSH1 0x4 DUP3 ADD MSTORE PUSH1 0xA PUSH1 0x24 DUP3 ADD MSTORE PUSH10 0x125B9D985B1A59081251 PUSH1 0xB2 SHL PUSH1 0x44 DUP3 ADD MSTORE PUSH1 0x64 ADD JUMPDEST PUSH1 0x40 MLOAD DUP1 SWAP2 SUB SWAP1 REVERT JUMPDEST PUSH1 0x0 DUP1 DUP3 DUP2 SLOAD DUP2 LT PUSH2 0x45B JUMPI PUSH2 0x45B PUSH2 0x919 JUMP JUMPDEST PUSH1 0x0 SWAP2 DUP3 MSTORE PUSH1 0x20 SWAP1 SWAP2 KECCAK256 PUSH1 0x6 SWAP1 SWAP2 MUL ADD PUSH1 0x4 DUP2 ADD SLOAD SWAP1 SWAP2 POP PUSH1 0xFF AND ISZERO PUSH2 0x4B6 JUMPI PUSH1 0x40 MLOAD PUSH3 0x461BCD PUSH1 0xE5 SHL DUP2 MSTORE PUSH1 0x20 PUSH1 0x4 DUP3 ADD MSTORE PUSH1 0x10 PUSH1 0x24 DUP3 ADD MSTORE PUSH16 0x105B1C9958591E481C995D99585B1959 PUSH1 0x82 SHL PUSH1 0x44 DUP3 ADD MSTORE PUSH1 0x64 ADD PUSH2 0x43E JUMP JUMPDEST DUP1 PUSH1 0x1 ADD SLOAD NUMBER GT PUSH2 0x509 JUMPI PUSH1 0x40 MLOAD PUSH3 0x461BCD PUSH1 0xE5 SHL DUP2 MSTORE PUSH1 0x20 PUSH1 0x4 DUP3 ADD MSTORE PUSH1 0x1A PUSH1 0x24 DUP3 ADD MSTORE PUSH32 0x54617267657420626C6F636B206E6F7420796574206D696E6564000000000000 PUSH1 0x44 DUP3 ADD MSTORE PUSH1 0x64 ADD PUSH2 0x43E JUMP JUMPDEST PUSH2 0x100 DUP2 PUSH1 0x1 ADD SLOAD NUMBER PUSH2 0x51C SWAP2 SWAP1 PUSH2 0x92F JUMP JUMPDEST GT ISZERO PUSH2 0x589 JUMPI PUSH1 0x40 MLOAD PUSH3 0x461BCD PUSH1 0xE5 SHL DUP2 MSTORE PUSH1 0x20 PUSH1 0x4 DUP3 ADD MSTORE PUSH1 0x36 PUSH1 0x24 DUP3 ADD MSTORE PUSH32 0x546F6F206C617465202D20626C6F636B68617368206E6F206C6F6E6765722061 PUSH1 0x44 DUP3 ADD MSTORE PUSH22 0x7661696C61626C6520283E32353620626C6F636B7329 PUSH1 0x50 SHL PUSH1 0x64 DUP3 ADD MSTORE PUSH1 0x84 ADD PUSH2 0x43E JUMP JUMPDEST PUSH1 0x1 DUP2 ADD SLOAD BLOCKHASH DUP1 PUSH2 0x5D4 JUMPI PUSH1 0x40 MLOAD PUSH3 0x461BCD PUSH1 0xE5 SHL DUP2 MSTORE PUSH1 0x20 PUSH1 0x4 DUP3 ADD MSTORE PUSH1 0x15 PUSH1 0x24 DUP3 ADD MSTORE PUSH21 0x426C6F636B6861736820756E617661696C61626C65 PUSH1 0x58 SHL PUSH1 0x44 DUP3 ADD MSTORE PUSH1 0x64 ADD PUSH2 0x43E JUMP JUMPDEST PUSH1 0x3 DUP3 ADD DUP2 SWAP1 SSTORE PUSH1 0x4 DUP3 ADD DUP1 SLOAD PUSH1 0x2 DUP5 ADD SLOAD DUP4 EQ PUSH2 0x100 MUL PUSH2 0xFFFF NOT SWAP1 SWAP2 AND OR PUSH1 0x1 OR SWAP1 SSTORE PUSH2 0x601 PUSH2 0x7FF JUMP JUMPDEST DUP2 SLOAD PUSH1 0x4 DUP4 ADD SLOAD PUSH1 0x40 DUP1 MLOAD DUP5 DUP2 MSTORE PUSH2 0x100 SWAP1 SWAP3 DIV PUSH1 0xFF AND ISZERO ISZERO PUSH1 0x20 DUP4 ADD MSTORE PUSH1 0x1 PUSH1 0x1 PUSH1 0xA0 SHL SUB SWAP1 SWAP3 AND SWAP2 DUP6 SWAP2 PUSH32 0xB0990BBEBA886280E2F786CCAB9DC00ED1217483DB275620AB7618B06B278066 SWAP2 ADD PUSH1 0x40 MLOAD DUP1 SWAP2 SUB SWAP1 LOG3 POP POP POP JUMP JUMPDEST PUSH1 0x1 PUSH1 0x1 PUSH1 0xA0 SHL SUB DUP2 AND PUSH1 0x0 SWAP1 DUP2 MSTORE PUSH1 0x1 PUSH1 0x20 SWAP1 DUP2 MSTORE PUSH1 0x40 SWAP2 DUP3 SWAP1 KECCAK256 DUP1 SLOAD DUP4 MLOAD DUP2 DUP5 MUL DUP2 ADD DUP5 ADD SWAP1 SWAP5 MSTORE DUP1 DUP5 MSTORE PUSH1 0x60 SWAP4 SWAP3 DUP4 ADD DUP3 DUP3 DUP1 ISZERO PUSH2 0x6BD JUMPI PUSH1 0x20 MUL DUP3 ADD SWAP2 SWAP1 PUSH1 0x0 MSTORE PUSH1 0x20 PUSH1 0x0 KECCAK256 SWAP1 JUMPDEST DUP2 SLOAD DUP2 MSTORE PUSH1 0x20 ADD SWAP1 PUSH1 0x1 ADD SWAP1 DUP1 DUP4 GT PUSH2 0x6A9 JUMPI JUMPDEST POP POP POP POP POP SWAP1 POP SWAP2 SWAP1 POP JUMP JUMPDEST PUSH1 0x0 NUMBER DUP3 LT PUSH2 0x710 JUMPI PUSH1 0x40 MLOAD PUSH3 0x461BCD PUSH1 0xE5 SHL DUP2 MSTORE PUSH1 0x20 PUSH1 0x4 DUP3 ADD MSTORE PUSH1 0x13 PUSH1 0x24 DUP3 ADD MSTORE PUSH19 0x109B1BD8DAC81B9BDD081B5A5B9959081E595D PUSH1 0x6A SHL PUSH1 0x44 DUP3 ADD MSTORE PUSH1 0x64 ADD PUSH2 0x43E JUMP JUMPDEST POP BLOCKHASH SWAP1 JUMP JUMPDEST PUSH1 0x1 PUSH1 0x20 MSTORE DUP2 PUSH1 0x0 MSTORE PUSH1 0x40 PUSH1 0x0 KECCAK256 DUP2 DUP2 SLOAD DUP2 LT PUSH2 0x731 JUMPI PUSH1 0x0 DUP1 REVERT JUMPDEST SWAP1 PUSH1 0x0 MSTORE PUSH1 0x20 PUSH1 0x0 KECCAK256 ADD PUSH1 0x0 SWAP2 POP SWAP2 POP POP SLOAD DUP2 JUMP JUMPDEST PUSH1 0x0 DUP1 PUSH1 0x0 DUP1 PUSH1 0x0 DUP1 PUSH1 0x0 DUP1 DUP1 SLOAD SWAP1 POP DUP9 LT PUSH2 0x791 JUMPI PUSH1 0x40 MLOAD PUSH3 0x461BCD PUSH1 0xE5 SHL DUP2 MSTORE PUSH1 0x20 PUSH1 0x4 DUP3 ADD MSTORE PUSH1 0xA PUSH1 0x24 DUP3 ADD MSTORE PUSH10 0x125B9D985B1A59081251 PUSH1 0xB2 SHL PUSH1 0x44 DUP3 ADD MSTORE PUSH1 0x64 ADD PUSH2 0x43E JUMP JUMPDEST PUSH1 0x0 DUP1 DUP10 DUP2 SLOAD DUP2 LT PUSH2 0x7A5 JUMPI PUSH2 0x7A5 PUSH2 0x919 JUMP JUMPDEST PUSH1 0x0 SWAP2 DUP3 MSTORE PUSH1 0x20 SWAP1 SWAP2 KECCAK256 PUSH1 0x6 SWAP1 SWAP2 MUL ADD DUP1 SLOAD PUSH1 0x1 DUP3 ADD SLOAD PUSH1 0x2 DUP4 ADD SLOAD PUSH1 0x3 DUP5 ADD SLOAD PUSH1 0x4 DUP6 ADD SLOAD PUSH1 0x5 SWAP1 SWAP6 ADD SLOAD PUSH1 0x1 PUSH1 0x1 PUSH1 0xA0 SHL SUB SWAP1 SWAP5 AND SWAP15 SWAP3 SWAP14 POP SWAP1 SWAP12 POP SWAP10 POP PUSH1 0xFF DUP1 DUP5 AND SWAP10 POP PUSH2 0x100 SWAP1 SWAP4 DIV SWAP1 SWAP3 AND SWAP7 POP SWAP5 POP SWAP3 POP POP POP JUMP JUMPDEST NUMBER ISZERO PUSH2 0x823 JUMPI PUSH2 0x810 PUSH1 0x1 NUMBER PUSH2 0x92F JUMP JUMPDEST PUSH1 0x3 SSTORE PUSH2 0x81E PUSH1 0x1 NUMBER PUSH2 0x92F JUMP JUMPDEST BLOCKHASH PUSH1 0x2 SSTORE JUMPDEST JUMP JUMPDEST PUSH1 0x0 PUSH1 0x20 DUP3 DUP5 SUB SLT ISZERO PUSH2 0x837 JUMPI PUSH1 0x0 DUP1 REVERT JUMPDEST POP CALLDATALOAD SWAP2 SWAP1 POP JUMP JUMPDEST DUP1 CALLDATALOAD PUSH1 0x1 PUSH1 0x1 PUSH1 0xA0 SHL SUB DUP2 AND DUP2 EQ PUSH2 0x855 JUMPI PUSH1 0x0 DUP1 REVERT JUMPDEST SWAP2 SWAP1 POP JUMP JUMPDEST PUSH1 0x0 PUSH1 0x20 DUP3 DUP5 SUB SLT ISZERO PUSH2 0x86C JUMPI PUSH1 0x0 DUP1 REVERT JUMPDEST PUSH2 0x875 DUP3 PUSH2 0x83E JUMP JUMPDEST SWAP4 SWAP3 POP POP POP JUMP JUMPDEST PUSH1 0x20 DUP1 DUP3 MSTORE DUP3 MLOAD DUP3 DUP3 ADD DUP2 SWAP1 MSTORE PUSH1 0x0 SWAP2 SWAP1 DUP5 DUP3 ADD SWAP1 PUSH1 0x40 DUP6 ADD SWAP1 DUP5 JUMPDEST DUP2 DUP2 LT ISZERO PUSH2 0x8B4 JUMPI DUP4 MLOAD DUP4 MSTORE SWAP3 DUP5 ADD SWAP3 SWAP2 DUP5 ADD SWAP2 PUSH1 0x1 ADD PUSH2 0x898 JUMP JUMPDEST POP SWAP1 SWAP7 SWAP6 POP POP POP POP POP POP JUMP JUMPDEST PUSH1 0x0 DUP1 PUSH1 0x40 DUP4 DUP6 SUB SLT ISZERO PUSH2 0x8D3 JUMPI PUSH1 0x0 DUP1 REVERT JUMPDEST PUSH2 0x8DC DUP4 PUSH2 0x83E JUMP JUMPDEST SWAP5 PUSH1 0x20 SWAP4 SWAP1 SWAP4 ADD CALLDATALOAD SWAP4 POP POP POP JUMP JUMPDEST PUSH4 0x4E487B71 PUSH1 0xE0 SHL PUSH1 0x0 MSTORE PUSH1 0x11 PUSH1 0x4 MSTORE PUSH1 0x24 PUSH1 0x0 REVERT JUMPDEST DUP1 DUP3 ADD DUP1 DUP3 GT ISZERO PUSH2 0x913 JUMPI PUSH2 0x913 PUSH2 0x8EA JUMP JUMPDEST SWAP3 SWAP2 POP POP JUMP JUMPDEST PUSH4 0x4E487B71 PUSH1 0xE0 SHL PUSH1 0x0 MSTORE PUSH1 0x32 PUSH1 0x4 MSTORE PUSH1 0x24 PUSH1 0x0 REVERT JUMPDEST DUP2 DUP2 SUB DUP2 DUP2 GT ISZERO PUSH2 0x913 JUMPI PUSH2 0x913 PUSH2 0x8EA JUMP INVALID LOG2 PUSH5 0x6970667358 0x22 SLT KECCAK256 SLT 0xED 0xBF DUP10 0x29 SWAP4 PUSH22 0xFA5BF0E89CBAFBD5B685540637A690AD8942C8B2E089 0xC5 0xC0 0xFB PUSH5 0x736F6C6343 STOP ADDMOD XOR STOP CALLER "},"methodIdentifiers":{"currentBlockNumber()":"378ec23b","getBlockHash(uint256)":"ee82ac5e","getPrediction(uint256)":"fe83bece","getUserPredictions(address)":"c285f853","latestStoredBlockNumber()":"56ed2346","latestStoredHash()":"a6f015c7","predictions(uint256)":"004fbbb0","revealPrediction(uint256)":"51f6ed6e","submitPrediction(bytes32)":"2c923e5f","totalPredictions()":"779bd562","userPredictions(address,uint256)":"f6c33179"}}}}}