{
  "_format": "hh-sol-artifact-1",
  "contractName": "BlockHashPredictor",
  "sourceName": "contracts/BlockHashPredictor.sol",
  "abi": [
    {
      "anonymous": false,
      "inputs": [
        {
          "indexed": true,
          "internalType": "uint256",
          "name": "predictionId",
          "type": "uint256"
        },
        {
          "indexed": true,
          "internalType": "address",
          "name": "predictor",
          "type": "address"
        },
        {
          "indexed": false,
          "internalType": "bytes32",
          "name": "actualHash",
          "type": "bytes32"
        },
        {
          "indexed": false,
          "internalType": "bool",
          "name": "correct",
          "type": "bool"
        }
      ],
      "name": "PredictionRevealed",
      "type": "event"
    },
    {
      "anonymous": false,
      "inputs": [
        {
          "indexed": true,
          "internalType": "uint256",
          "name": "predictionId",
          "type": "uint256"
        },
        {
          "indexed": true,
          "internalType": "address",
          "name": "predictor",
          "type": "address"
        },
        {
          "indexed": false,
          "internalType": "uint256",
          "name": "targetBlock",
          "type": "uint256"
        },
        {
          "indexed": false,
          "internalType": "bytes32",
          "name": "predictedHash",
          "type": "bytes32"
        }
      ],
      "name": "PredictionSubmitted",
      "type": "event"
    },
    {
      "inputs": [],
      "name": "currentBlockNumber",
      "outputs": [
        {
          "internalType": "uint256",
          "name": "",
          "type": "uint256"
        }
      ],
      "stateMutability": "view",
      "type": "function"
    },
    {
      "inputs": [
        {
          "internalType": "uint256",
          "name": "_blockNumber",
          "type": "uint256"
        }
      ],
      "name": "getBlockHash",
      "outputs": [
        {
          "internalType": "bytes32",
          "name": "",
          "type": "bytes32"
        }
      ],
      "stateMutability": "view",
      "type": "function"
    },
    {
      "inputs": [
        {
          "internalType": "uint256",
          "name": "_id",
          "type": "uint256"
        }
      ],
      "name": "getPrediction",
      "outputs": [
        {
          "internalType": "address",
          "name": "predictor",
          "type": "address"
        },
        {
          "internalType": "uint256",
          "name": "targetBlock",
          "type": "uint256"
        },
        {
          "internalType": "bytes32",
          "name": "predictedHash",
          "type": "bytes32"
        },
        {
          "internalType": "bytes32",
          "name": "actualHash",
          "type": "bytes32"
        },
        {
          "internalType": "bool",
          "name": "revealed",
          "type": "bool"
        },
        {
          "internalType": "bool",
          "name": "correct",
          "type": "bool"
        },
        {
          "internalType": "uint256",
          "name": "timestamp",
          "type": "uint256"
        }
      ],
      "stateMutability": "view",
      "type": "function"
    },
    {
      "inputs": [
        {
          "internalType": "address",
          "name": "_user",
          "type": "address"
        }
      ],
      "name": "getUserPredictions",
      "outputs": [
        {
          "internalType": "uint256[]",
          "name": "",
          "type": "uint256[]"
        }
      ],
      "stateMutability": "view",
      "type": "function"
    },
    {
      "inputs": [],
      "name": "latestStoredBlockNumber",
      "outputs": [
        {
          "internalType": "uint256",
          "name": "",
          "type": "uint256"
        }
      ],
      "stateMutability": "view",
      "type": "function"
    },
    {
      "inputs": [],
      "name": "latestStoredHash",
      "outputs": [
        {
          "internalType": "bytes32",
          "name": "",
          "type": "bytes32"
        }
      ],
      "stateMutability": "view",
      "type": "function"
    },
    {
      "inputs": [
        {
          "internalType": "uint256",
          "name": "",
          "type": "uint256"
        }
      ],
      "name": "predictions",
      "outputs": [
        {
          "internalType": "address",
          "name": "predictor",
          "type": "address"
        },
        {
          "internalType": "uint256",
          "name": "targetBlock",
          "type": "uint256"
        },
        {
          "internalType": "bytes32",
          "name": "predictedHash",
          "type": "bytes32"
        },
        {
          "internalType": "bytes32",
          "name": "actualHash",
          "type": "bytes32"
        },
        {
          "internalType": "bool",
          "name": "revealed",
          "type": "bool"
        },
        {
          "internalType": "bool",
          "name": "correct",
          "type": "bool"
        },
        {
          "internalType": "uint256",
          "name": "timestamp",
          "type": "uint256"
        }
      ],
      "stateMutability": "view",
      "type": "function"
    },
    {
      "inputs": [
        {
          "internalType": "uint256",
          "name": "_predictionId",
          "type": "uint256"
        }
      ],
      "name": "revealPrediction",
      "outputs": [],
      "stateMutability": "nonpayable",
      "type": "function"
    },
    {
      "inputs": [
        {
          "internalType": "bytes32",
          "name": "_predictedHash",
          "type": "bytes32"
        }
      ],
      "name": "submitPrediction",
      "outputs": [
        {
          "internalType": "uint256",
          "name": "predictionId",
          "type": "uint256"
        }
      ],
      "stateMutability": "nonpayable",
      "type": "function"
    },
    {
      "inputs": [],
      "name": "totalPredictions",
      "outputs": [
        {
          "internalType": "uint256",
          "name": "",
          "type": "uint256"
        }
      ],
      "stateMutability": "view",
      "type": "function"
    },
    {
      "inputs": [
        {
          "internalType": "address",
          "name": "",
          "type": "address"
        },
        {
          "internalType": "uint256",
          "name": "",
          "type": "uint256"
        }
      ],
      "name": "userPredictions",
      "outputs": [
        {
          "internalType": "uint256",
          "name": "",
          "type": "uint256"
        }
      ],
      "stateMutability": "view",
      "type": "function"
    }
  ],
  "bytecode": "0x608060405234801561001057600080fd5b50610978806100206000396000f3fe608060405234801561001057600080fd5b50600436106100a85760003560e01c8063779bd56211610071578063779bd5621461014d578063a6f015c714610155578063c285f8531461015e578063ee82ac5e1461017e578063f6c3317914610191578063fe83bece146101a457600080fd5b80624fbbb0146100ad5780632c923e5f14610108578063378ec23b1461012957806351f6ed6e1461012f57806356ed234614610144575b600080fd5b6100c06100bb366004610825565b6101b7565b604080516001600160a01b039098168852602088019690965294860193909352606085019190915215156080840152151560a083015260c082015260e0015b60405180910390f35b61011b610116366004610825565b610214565b6040519081526020016100ff565b4361011b565b61014261013d366004610825565b610404565b005b61011b60035481565b60005461011b565b61011b60025481565b61017161016c36600461085a565b61065d565b6040516100ff919061087c565b61011b61018c366004610825565b6106c9565b61011b61019f3660046108c0565b610715565b6100c06101b2366004610825565b610746565b600081815481106101c757600080fd5b60009182526020909120600690910201805460018201546002830154600384015460048501546005909501546001600160a01b0390941695509193909260ff808316926101009004169087565b600061021e6107ff565b600061022b436001610900565b600080546040805160e0810182523380825260208083018781528385018b8152606085018881526080860189815260a087018a81524260c089019081526001808c018d558c8052985160068c027f290decd9548b62a8d60345a988386fc84ba6bc95484008f6362f93160ef3e563810180546001600160a01b03939093166001600160a01b03199093169290921790915595517f290decd9548b62a8d60345a988386fc84ba6bc95484008f6362f93160ef3e56487015593517f290decd9548b62a8d60345a988386fc84ba6bc95484008f6362f93160ef3e56586015591517f290decd9548b62a8d60345a988386fc84ba6bc95484008f6362f93160ef3e566850155517f290decd9548b62a8d60345a988386fc84ba6bc95484008f6362f93160ef3e56784018054925115156101000261ff00199215159290921661ffff1990931692909217179055517f290decd9548b62a8d60345a988386fc84ba6bc95484008f6362f93160ef3e5689091015581865282815283862080549384018155865290942001829055519094509192509083907fbcb8afb77c4fd53e373b13820fcf977bcc727ce8391988f1171af2bc168043ea906103f69085908890918252602082015260400190565b60405180910390a350919050565b60005481106104475760405162461bcd60e51b815260206004820152600a602482015269125b9d985b1a5908125160b21b60448201526064015b60405180910390fd5b600080828154811061045b5761045b610919565b60009182526020909120600690910201600481015490915060ff16156104b65760405162461bcd60e51b815260206004820152601060248201526f105b1c9958591e481c995d99585b195960821b604482015260640161043e565b806001015443116105095760405162461bcd60e51b815260206004820152601a60248201527f54617267657420626c6f636b206e6f7420796574206d696e6564000000000000604482015260640161043e565b61010081600101544361051c919061092f565b11156105895760405162461bcd60e51b815260206004820152603660248201527f546f6f206c617465202d20626c6f636b68617368206e6f206c6f6e67657220616044820152757661696c61626c6520283e32353620626c6f636b732960501b606482015260840161043e565b600181015440806105d45760405162461bcd60e51b8152602060048201526015602482015274426c6f636b6861736820756e617661696c61626c6560581b604482015260640161043e565b60038201819055600482018054600284015483146101000261ffff199091161760011790556106016107ff565b815460048301546040805184815261010090920460ff16151560208301526001600160a01b039092169185917fb0990bbeba886280e2f786ccab9dc00ed1217483db275620ab7618b06b278066910160405180910390a3505050565b6001600160a01b0381166000908152600160209081526040918290208054835181840281018401909452808452606093928301828280156106bd57602002820191906000526020600020905b8154815260200190600101908083116106a9575b50505050509050919050565b60004382106107105760405162461bcd60e51b8152602060048201526013602482015272109b1bd8dac81b9bdd081b5a5b9959081e595d606a1b604482015260640161043e565b504090565b6001602052816000526040600020818154811061073157600080fd5b90600052602060002001600091509150505481565b6000806000806000806000808054905088106107915760405162461bcd60e51b815260206004820152600a602482015269125b9d985b1a5908125160b21b604482015260640161043e565b60008089815481106107a5576107a5610919565b60009182526020909120600690910201805460018201546002830154600384015460048501546005909501546001600160a01b039094169e929d50909b50995060ff80841699506101009093049092169650945092505050565b43156108235761081060014361092f565b60035561081e60014361092f565b406002555b565b60006020828403121561083757600080fd5b5035919050565b80356001600160a01b038116811461085557600080fd5b919050565b60006020828403121561086c57600080fd5b6108758261083e565b9392505050565b6020808252825182820181905260009190848201906040850190845b818110156108b457835183529284019291840191600101610898565b50909695505050505050565b600080604083850312156108d357600080fd5b6108dc8361083e565b946020939093013593505050565b634e487b7160e01b600052601160045260246000fd5b80820180821115610913576109136108ea565b92915050565b634e487b7160e01b600052603260045260246000fd5b81810381811115610913576109136108ea56fea264697066735822122012edbf89299375fa5bf0e89cbafbd5b685540637a690ad8942c8b2e089c5c0fb64736f6c63430008180033",
  "linkReferences": {},
  "deployedLinkReferences": {}
}